{
  "_format": "hh-sol-artifact-1",
  "contractName": "TipMe",
  "sourceName": "contracts/TipMe.sol",
  "abi": [
    {
      "inputs": [],
      "stateMutability": "payable",
      "type": "constructor"
    },
    {
      "inputs": [
        {
          "internalType": "uint256",
          "name": "_orderAmount",
          "type": "uint256"
        },
        {
          "internalType": "uint256",
          "name": "_tipAmount",
          "type": "uint256"
        }
      ],
      "name": "addOrder",
      "outputs": [],
      "stateMutability": "nonpayable",
      "type": "function"
    },
    {
      "inputs": [],
      "name": "addWaiter",
      "outputs": [],
      "stateMutability": "nonpayable",
      "type": "function"
    },
    {
      "inputs": [
        {
          "internalType": "address",
          "name": "",
          "type": "address"
        }
      ],
      "name": "addressToWaiterName",
      "outputs": [
        {
          "internalType": "string",
          "name": "",
          "type": "string"
        }
      ],
      "stateMutability": "view",
      "type": "function"
    },
    {
      "inputs": [],
      "name": "getOrders",
      "outputs": [
        {
          "components": [
            {
              "internalType": "uint256",
              "name": "orderNumber",
              "type": "uint256"
            },
            {
              "internalType": "uint256",
              "name": "orderAmount",
              "type": "uint256"
            },
            {
              "internalType": "uint256",
              "name": "tipAmount",
              "type": "uint256"
            },
            {
              "internalType": "address",
              "name": "waiterAddress",
              "type": "address"
            },
            {
              "internalType": "string",
              "name": "waiterName",
              "type": "string"
            }
          ],
          "internalType": "struct TipMe.Order[]",
          "name": "",
          "type": "tuple[]"
        }
      ],
      "stateMutability": "view",
      "type": "function"
    },
    {
      "inputs": [],
      "name": "getWaiters",
      "outputs": [
        {
          "components": [
            {
              "internalType": "string",
              "name": "waiterName",
              "type": "string"
            },
            {
              "internalType": "address",
              "name": "waiterAddress",
              "type": "address"
            },
            {
              "internalType": "uint256",
              "name": "tip",
              "type": "uint256"
            }
          ],
          "internalType": "struct TipMe.Waiter[]",
          "name": "",
          "type": "tuple[]"
        }
      ],
      "stateMutability": "view",
      "type": "function"
    },
    {
      "inputs": [],
      "name": "orderNumber",
      "outputs": [
        {
          "internalType": "uint256",
          "name": "",
          "type": "uint256"
        }
      ],
      "stateMutability": "view",
      "type": "function"
    },
    {
      "inputs": [
        {
          "internalType": "uint256",
          "name": "",
          "type": "uint256"
        }
      ],
      "name": "orderToWaiterAddress",
      "outputs": [
        {
          "internalType": "address",
          "name": "",
          "type": "address"
        }
      ],
      "stateMutability": "view",
      "type": "function"
    },
    {
      "inputs": [
        {
          "internalType": "uint256",
          "name": "",
          "type": "uint256"
        }
      ],
      "name": "orderToWaiterName",
      "outputs": [
        {
          "internalType": "string",
          "name": "",
          "type": "string"
        }
      ],
      "stateMutability": "view",
      "type": "function"
    },
    {
      "inputs": [
        {
          "internalType": "uint256",
          "name": "",
          "type": "uint256"
        }
      ],
      "name": "orders",
      "outputs": [
        {
          "internalType": "uint256",
          "name": "orderNumber",
          "type": "uint256"
        },
        {
          "internalType": "uint256",
          "name": "orderAmount",
          "type": "uint256"
        },
        {
          "internalType": "uint256",
          "name": "tipAmount",
          "type": "uint256"
        },
        {
          "internalType": "address",
          "name": "waiterAddress",
          "type": "address"
        },
        {
          "internalType": "string",
          "name": "waiterName",
          "type": "string"
        }
      ],
      "stateMutability": "view",
      "type": "function"
    },
    {
      "inputs": [
        {
          "internalType": "address",
          "name": "",
          "type": "address"
        }
      ],
      "name": "waiterToTip",
      "outputs": [
        {
          "internalType": "uint256",
          "name": "",
          "type": "uint256"
        }
      ],
      "stateMutability": "view",
      "type": "function"
    },
    {
      "inputs": [
        {
          "internalType": "uint256",
          "name": "",
          "type": "uint256"
        }
      ],
      "name": "waiters",
      "outputs": [
        {
          "internalType": "string",
          "name": "waiterName",
          "type": "string"
        },
        {
          "internalType": "address",
          "name": "waiterAddress",
          "type": "address"
        },
        {
          "internalType": "uint256",
          "name": "tip",
          "type": "uint256"
        }
      ],
      "stateMutability": "view",
      "type": "function"
    },
    {
      "inputs": [],
      "name": "withdrawTips",
      "outputs": [],
      "stateMutability": "nonpayable",
      "type": "function"
    },
    {
      "stateMutability": "payable",
      "type": "receive"
    }
  ],
  "bytecode": "0x608060405260016000553073ffffffffffffffffffffffffffffffffffffffff166108fc349081150290604051600060405180830381858888f1935050505015801561004f573d6000803e3d6000fd5b50611b448061005f6000396000f3fe6080604052600436106100ab5760003560e01c8063a64468aa11610064578063a64468aa146101c7578063a6eaa06d14610204578063a7c9de6914610243578063a85c38ef1461026e578063b04dd81b146102af578063f28db6c4146102da576100b2565b80630698cb45146100b75780632e2dc43e146100f45780633446a7051461011f5780633aaa74b21461013657806340fae7ae1461014d5780639c6f85591461018a576100b2565b366100b257005b600080fd5b3480156100c357600080fd5b506100de60048036038101906100d99190611088565b610303565b6040516100eb91906110f6565b60405180910390f35b34801561010057600080fd5b50610109610336565b60405161011691906112f7565b60405180910390f35b34801561012b57600080fd5b5061013461049b565b005b34801561014257600080fd5b5061014b610682565b005b34801561015957600080fd5b50610174600480360381019061016f9190611345565b610823565b6040516101819190611381565b60405180910390f35b34801561019657600080fd5b506101b160048036038101906101ac9190611345565b61083b565b6040516101be91906113e6565b60405180910390f35b3480156101d357600080fd5b506101ee60048036038101906101e99190611088565b6108db565b6040516101fb91906113e6565b60405180910390f35b34801561021057600080fd5b5061022b60048036038101906102269190611088565b61097b565b60405161023a93929190611408565b60405180910390f35b34801561024f57600080fd5b50610258610a5d565b6040516102659190611558565b60405180910390f35b34801561027a57600080fd5b5061029560048036038101906102909190611088565b610bae565b6040516102a695949392919061157a565b60405180910390f35b3480156102bb57600080fd5b506102c4610c9c565b6040516102d19190611381565b60405180910390f35b3480156102e657600080fd5b5061030160048036038101906102fc91906115d4565b610ca2565b005b60046020528060005260406000206000915054906101000a900473ffffffffffffffffffffffffffffffffffffffff1681565b60606005805480602002602001604051908101604052809291908181526020016000905b8282101561049257838290600052602060002090600502016040518060a00160405290816000820154815260200160018201548152602001600282015481526020016003820160009054906101000a900473ffffffffffffffffffffffffffffffffffffffff1673ffffffffffffffffffffffffffffffffffffffff1673ffffffffffffffffffffffffffffffffffffffff16815260200160048201805461040190611643565b80601f016020809104026020016040519081016040528092919081815260200182805461042d90611643565b801561047a5780601f1061044f5761010080835404028352916020019161047a565b820191906000526020600020905b81548152906001019060200180831161045d57829003601f168201915b5050505050815250508152602001906001019061035a565b50505050905090565b6000805b60068054905081101561053c573373ffffffffffffffffffffffffffffffffffffffff16600682815481106104d7576104d6611674565b5b906000526020600020906003020160010160009054906101000a900473ffffffffffffffffffffffffffffffffffffffff1673ffffffffffffffffffffffffffffffffffffffff160361052957600191505b8080610534906116d2565b91505061049f565b50600015158115151461054e57600080fd5b60405180602001604052806000815250600160003373ffffffffffffffffffffffffffffffffffffffff1673ffffffffffffffffffffffffffffffffffffffff16815260200190815260200160002090816105a991906118f5565b50600660405180606001604052806040518060200160405280600081525081526020013373ffffffffffffffffffffffffffffffffffffffff16815260200160008152509080600181540180825580915050600190039060005260206000209060030201600090919091909150600082015181600001908161062b91906118f5565b5060208201518160010160006101000a81548173ffffffffffffffffffffffffffffffffffffffff021916908373ffffffffffffffffffffffffffffffffffffffff16021790555060408201518160020155505050565b6000600260003373ffffffffffffffffffffffffffffffffffffffff1673ffffffffffffffffffffffffffffffffffffffff16815260200190815260200160002054905060003390508073ffffffffffffffffffffffffffffffffffffffff166108fc839081150290604051600060405180830381858888f19350505050158015610711573d6000803e3d6000fd5b5060005b6006805490508110156107d9573373ffffffffffffffffffffffffffffffffffffffff166006828154811061074d5761074c611674565b5b906000526020600020906003020160010160009054906101000a900473ffffffffffffffffffffffffffffffffffffffff1673ffffffffffffffffffffffffffffffffffffffff16036107c6576000600682815481106107b0576107af611674565b5b9060005260206000209060030201600201819055505b80806107d1906116d2565b915050610715565b506000600260003373ffffffffffffffffffffffffffffffffffffffff1673ffffffffffffffffffffffffffffffffffffffff168152602001908152602001600020819055505050565b60026020528060005260406000206000915090505481565b6001602052806000526040600020600091509050805461085a90611643565b80601f016020809104026020016040519081016040528092919081815260200182805461088690611643565b80156108d35780601f106108a8576101008083540402835291602001916108d3565b820191906000526020600020905b8154815290600101906020018083116108b657829003601f168201915b505050505081565b600360205280600052604060002060009150905080546108fa90611643565b80601f016020809104026020016040519081016040528092919081815260200182805461092690611643565b80156109735780601f1061094857610100808354040283529160200191610973565b820191906000526020600020905b81548152906001019060200180831161095657829003601f168201915b505050505081565b6006818154811061098b57600080fd5b90600052602060002090600302016000915090508060000180546109ae90611643565b80601f01602080910402602001604051908101604052809291908181526020018280546109da90611643565b8015610a275780601f106109fc57610100808354040283529160200191610a27565b820191906000526020600020905b815481529060010190602001808311610a0a57829003601f168201915b5050505050908060010160009054906101000a900473ffffffffffffffffffffffffffffffffffffffff16908060020154905083565b60606006805480602002602001604051908101604052809291908181526020016000905b82821015610ba55783829060005260206000209060030201604051806060016040529081600082018054610ab490611643565b80601f0160208091040260200160405190810160405280929190818152602001828054610ae090611643565b8015610b2d5780601f10610b0257610100808354040283529160200191610b2d565b820191906000526020600020905b815481529060010190602001808311610b1057829003601f168201915b505050505081526020016001820160009054906101000a900473ffffffffffffffffffffffffffffffffffffffff1673ffffffffffffffffffffffffffffffffffffffff1673ffffffffffffffffffffffffffffffffffffffff16815260200160028201548152505081526020019060010190610a81565b50505050905090565b60058181548110610bbe57600080fd5b90600052602060002090600502016000915090508060000154908060010154908060020154908060030160009054906101000a900473ffffffffffffffffffffffffffffffffffffffff1690806004018054610c1990611643565b80601f0160208091040260200160405190810160405280929190818152602001828054610c4590611643565b8015610c925780601f10610c6757610100808354040283529160200191610c92565b820191906000526020600020905b815481529060010190602001808311610c7557829003601f168201915b5050505050905085565b60005481565b6000806000815480929190610cb6906116d2565b91905055905060056040518060a001604052808381526020018581526020018481526020013373ffffffffffffffffffffffffffffffffffffffff168152602001600160003373ffffffffffffffffffffffffffffffffffffffff1673ffffffffffffffffffffffffffffffffffffffff1681526020019081526020016000208054610d4190611643565b80601f0160208091040260200160405190810160405280929190818152602001828054610d6d90611643565b8015610dba5780601f10610d8f57610100808354040283529160200191610dba565b820191906000526020600020905b815481529060010190602001808311610d9d57829003601f168201915b5050505050815250908060018154018082558091505060019003906000526020600020906005020160009091909190915060008201518160000155602082015181600101556040820151816002015560608201518160030160006101000a81548173ffffffffffffffffffffffffffffffffffffffff021916908373ffffffffffffffffffffffffffffffffffffffff1602179055506080820151816004019081610e6591906118f5565b505050336004600083815260200190815260200160002060006101000a81548173ffffffffffffffffffffffffffffffffffffffff021916908373ffffffffffffffffffffffffffffffffffffffff160217905550600160003373ffffffffffffffffffffffffffffffffffffffff1673ffffffffffffffffffffffffffffffffffffffff168152602001908152602001600020600360008381526020019081526020016000209081610f1891906119f2565b5081600260003373ffffffffffffffffffffffffffffffffffffffff1673ffffffffffffffffffffffffffffffffffffffff1681526020019081526020016000206000828254610f689190611ada565b9250508190555060005b600680549050811015611047573373ffffffffffffffffffffffffffffffffffffffff1660068281548110610faa57610fa9611674565b5b906000526020600020906003020160010160009054906101000a900473ffffffffffffffffffffffffffffffffffffffff1673ffffffffffffffffffffffffffffffffffffffff160361103457826006828154811061100c5761100b611674565b5b9060005260206000209060030201600201600082825461102c9190611ada565b925050819055505b808061103f906116d2565b915050610f72565b50505050565b600080fd5b6000819050919050565b61106581611052565b811461107057600080fd5b50565b6000813590506110828161105c565b92915050565b60006020828403121561109e5761109d61104d565b5b60006110ac84828501611073565b91505092915050565b600073ffffffffffffffffffffffffffffffffffffffff82169050919050565b60006110e0826110b5565b9050919050565b6110f0816110d5565b82525050565b600060208201905061110b60008301846110e7565b92915050565b600081519050919050565b600082825260208201905092915050565b6000819050602082019050919050565b61114681611052565b82525050565b611155816110d5565b82525050565b600081519050919050565b600082825260208201905092915050565b60005b8381101561119557808201518184015260208101905061117a565b60008484015250505050565b6000601f19601f8301169050919050565b60006111bd8261115b565b6111c78185611166565b93506111d7818560208601611177565b6111e0816111a1565b840191505092915050565b600060a083016000830151611203600086018261113d565b506020830151611216602086018261113d565b506040830151611229604086018261113d565b50606083015161123c606086018261114c565b506080830151848203608086015261125482826111b2565b9150508091505092915050565b600061126d83836111eb565b905092915050565b6000602082019050919050565b600061128d82611111565b611297818561111c565b9350836020820285016112a98561112d565b8060005b858110156112e557848403895281516112c68582611261565b94506112d183611275565b925060208a019950506001810190506112ad565b50829750879550505050505092915050565b600060208201905081810360008301526113118184611282565b905092915050565b611322816110d5565b811461132d57600080fd5b50565b60008135905061133f81611319565b92915050565b60006020828403121561135b5761135a61104d565b5b600061136984828501611330565b91505092915050565b61137b81611052565b82525050565b60006020820190506113966000830184611372565b92915050565b600082825260208201905092915050565b60006113b88261115b565b6113c2818561139c565b93506113d2818560208601611177565b6113db816111a1565b840191505092915050565b6000602082019050818103600083015261140081846113ad565b905092915050565b6000606082019050818103600083015261142281866113ad565b905061143160208301856110e7565b61143e6040830184611372565b949350505050565b600081519050919050565b600082825260208201905092915050565b6000819050602082019050919050565b6000606083016000830151848203600086015261148f82826111b2565b91505060208301516114a4602086018261114c565b5060408301516114b7604086018261113d565b508091505092915050565b60006114ce8383611472565b905092915050565b6000602082019050919050565b60006114ee82611446565b6114f88185611451565b93508360208202850161150a85611462565b8060005b85811015611546578484038952815161152785826114c2565b9450611532836114d6565b925060208a0199505060018101905061150e565b50829750879550505050505092915050565b6000602082019050818103600083015261157281846114e3565b905092915050565b600060a08201905061158f6000830188611372565b61159c6020830187611372565b6115a96040830186611372565b6115b660608301856110e7565b81810360808301526115c881846113ad565b90509695505050505050565b600080604083850312156115eb576115ea61104d565b5b60006115f985828601611073565b925050602061160a85828601611073565b9150509250929050565b7f4e487b7100000000000000000000000000000000000000000000000000000000600052602260045260246000fd5b6000600282049050600182168061165b57607f821691505b60208210810361166e5761166d611614565b5b50919050565b7f4e487b7100000000000000000000000000000000000000000000000000000000600052603260045260246000fd5b7f4e487b7100000000000000000000000000000000000000000000000000000000600052601160045260246000fd5b60006116dd82611052565b91507fffffffffffffffffffffffffffffffffffffffffffffffffffffffffffffffff820361170f5761170e6116a3565b5b600182019050919050565b7f4e487b7100000000000000000000000000000000000000000000000000000000600052604160045260246000fd5b60008190508160005260206000209050919050565b60006020601f8301049050919050565b600082821b905092915050565b6000600883026117ab7fffffffffffffffffffffffffffffffffffffffffffffffffffffffffffffffff8261176e565b6117b5868361176e565b95508019841693508086168417925050509392505050565b6000819050919050565b60006117f26117ed6117e884611052565b6117cd565b611052565b9050919050565b6000819050919050565b61180c836117d7565b611820611818826117f9565b84845461177b565b825550505050565b600090565b611835611828565b611840818484611803565b505050565b5b818110156118645761185960008261182d565b600181019050611846565b5050565b601f8211156118a95761187a81611749565b6118838461175e565b81016020851015611892578190505b6118a661189e8561175e565b830182611845565b50505b505050565b600082821c905092915050565b60006118cc600019846008026118ae565b1980831691505092915050565b60006118e583836118bb565b9150826002028217905092915050565b6118fe8261115b565b67ffffffffffffffff8111156119175761191661171a565b5b6119218254611643565b61192c828285611868565b600060209050601f83116001811461195f576000841561194d578287015190505b61195785826118d9565b8655506119bf565b601f19841661196d86611749565b60005b8281101561199557848901518255600182019150602085019450602081019050611970565b868310156119b257848901516119ae601f8916826118bb565b8355505b6001600288020188555050505b505050505050565b6000815490506119d681611643565b9050919050565b60008190508160005260206000209050919050565b818103611a00575050611ad8565b611a09826119c7565b67ffffffffffffffff811115611a2257611a2161171a565b5b611a2c8254611643565b611a37828285611868565b6000601f831160018114611a665760008415611a54578287015490505b611a5e85826118d9565b865550611ad1565b601f198416611a74876119dd565b9650611a7f86611749565b60005b82811015611aa757848901548255600182019150600185019450602081019050611a82565b86831015611ac45784890154611ac0601f8916826118bb565b8355505b6001600288020188555050505b5050505050505b565b6000611ae582611052565b9150611af083611052565b9250828201905080821115611b0857611b076116a3565b5b9291505056fea2646970667358221220333068713a7783d51adf9434f6c4b2620bc73b8765db94318271883ba61ee10c64736f6c63430008110033",
  "linkReferences": {},
  "deployedLinkReferences": {}
}